:020000040800F2
:1000000000500020713E0008690600086B060008D9
:100010006D0600086F060008710600080000000069
:10002000000000000000000000000000730600084F
:100030007506000800000000770600087906000831
:10004000B93E0008B93E0008B93E0008B93E0008B4
:10005000B93E0008B93E0008B93E0008B93E0008A4
:10006000B93E0008B93E0008B93E0008B93E000894
:10007000B93E0008A1060008B93E0008B93E0008D4
:10008000B93E000891060008B93E0008B93E0008D4
:10009000B93E0008B93E0008B93E0008B93E000864
:1000A000B93E0008FD2F0008B93E0008B93E00081F
:1000B0000D300008B93E0008B93E0008B93E0008FE
:1000C000B93E0008B93E0008B93E0008B93E000834
:1000D000B93E0008B93E0008C1060008B106000894
:1000E000B93E0008B93E0008B93E00080000000013
:1000F0000000000000000000000000000000000000
:0C01000000000000000000005FF808F1A3
:10010C000348044B834202D0034B03B1184770479A
:10011C00C4010020C401002000000000054806496D
:10012C000B1AD90F01EBA301491002D0034B03B1F9
:10013C0018477047C4010020C401002000000000D3
:10014C0010B5064C237843B9FFF7DAFF044B13B113
:10015C000448AFF300800123237010BDC4010020BC
:10016C0000000000BC3E000808B5044B1BB104495C
:10017C000448AFF30080BDE80840CFE70000000062
:10018C00C8010020BC3E000870B50D4E0D4D761B0D
:10019C00B61006D00024013455F8043B9847A6420B
:1001AC00F9D1094E094D03F083FE761BB61006D02B
:1001BC000024013455F8043B9847A642F9D170BD90
:1001CC0080440008804400088444000880440008EF
:1001DC00F0B4860746D0541E002A3CD0CAB203465F
:1001EC0002E014F1FF3436D303F8012B9D07F8D14C
:1001FC00032C29D9CDB245EA05250F2C45EA054536
:10020C0033D9A4F11006360903F1200707EB0617C2
:10021C0003F1100242E9045542E902551032BA4288
:10022C00F8D1721C14F00C0F03EB021204F00F0641
:10023C0013D0331F23F003030433134442F8045B3D
:10024C009342FBD106F003042CB1C9B21C4403F851
:10025C00011B9C42FBD1F0BC704734461346002C6A
:10026C00F3D1F8E714460346C2E71A462646E0E700
:10027C000F4B1A6842F001021A6059680D4A0A4085
:10028C005A601A6822F0847222F480321A601A685A
:10029C0022F480221A605A6822F4FE025A604FF44B
:1002AC001F029A60044B4FF000629A60704700BFC7
:1002BC00001002400000FFF800ED00E010B44B8885
:1002CC000C79012C13D0022C22D0002836DDC01A58
:1002DC0012689042D4BF1B189B18002B38DD0122EA
:1002EC000A71002BB8BF5B424B8010BC7047834235
:1002FC0006DAC01A12689042D4BF1B189B18ECE7A0
:10030C00C01A526852429042ACBF1B189B18E4E7CB
:10031C005C42844209DD1844126852429042ACBFE0
:10032C00C3EB0003C3EB0203D7E7184452689042B7
:10033C00D4BFC3EB0003C3EB0203CEE7184412682F
:10034C0052429042ACBFC3EB0003C3EB0203C4E7C1
:10035C00002B02DB03220A71C3E702220A71C0E7F9
:10036C002DE9F843664C4FF4C67200212046FFF786
:10037C002FFF4FF0140EC4F804E06FF01307A760C2
:10038C00604D04F10C0395E8070083E80700002694
:10039C004FF0250CC4F81CC02684C4F828E0E76292
:1003AC0004F1300705F110030FCB07C73B70A4F81D
:1003BC003D6084F83F60C4F840C0A4F84460322328
:1003CC00A364C823E36404F1540705F120030FCBA5
:1003DC0007C73B80A4F862604B4B93E80300606650
:1003EC00A4F868100A23E36640F2E733236701237D
:1003FC00636704F1780305F1300207CA03C323F8DD
:10040C00022B120C1A70C4F8836084F88760732373
:10041C00C4F88830A4F88C604FF00409C4F89090AC
:10042C004FF00608C4F894804FF0020EC4F898E020
:10043C0004F19C07403595E80F0007C727F8023BED
:10044C001B0C3B7084F8AB60DFF8C0C0C4F8ACC0C8
:10045C00A4F8B060C4F8B490C4F8B880C4F8BCE098
:10046C0004F1C00795E80F0007C727F8023B1B0CE7
:10047C003B7084F8CF60C4F8D0C0A4F8D460C4F842
:10048C00D890C4F8DC80C4F8E0E004F1E40795E807
:10049C000F0007C727F8023B1B0C3B7084F8F36076
:1004AC00C4F8F4C0A4F8F860C4F8FC90C4F8008157
:1004BC00C4F804E104F5847795E80F0007C727F822
:1004CC00023B1B0C3B7084F81761C4F818C1A4F8EC
:1004DC001C61C4F82091C4F82481C4F828E104F507
:1004EC00967795E80F0007C727F8023B1B0C3B706B
:1004FC0084F83B61C4F83CC1A4F84061BDE8F883C2
:10050C00E0010020D43E0008443F00082F313600A3
:10051C00002209E0930003F1006303F5FE33196830
:10052C00094B43F8221001320C2AF3DD002307E0BB
:10053C00064A52F82320044951F823101160013364
:10054C00082BF5DD704700BF6C0300201000002065
:10055C0008B5FFF705FFFFF7DBFF08BD10B582B04C
:10056C00264B93E8030002AB03E90300244B9B7872
:10057C0013F0100F02D1234B01221A60204B9B78F1
:10058C0013F0100F03D01F4B1B68012B08D0002455
:10059C00012C31DCCCB1012C28D0012002B010BDD3
:1005AC00174B9B7813F0200FF1D1174B1B6843B1FD
:1005BC00012B02D1144B00221A60124B00221A603C
:1005CC00E5E7114B01221A60F7E70D4803F040F8FC
:1005DC0000214B000B446A460C4901EB43014E23AE
:1005EC0003FB00F0FFF76AFE0134D1E7044803F087
:1005FC0013F840420121ECE70020CFE7243F00082C
:10060C005C080020B4030020B80300200400002084
:10061C0030B583B00A4D0B4C0B4B2B222946204690
:10062C0002F006FEFFF794FF084B5B6A0093084B41
:10063C004B222946204602F0FBFD002003B030BDC2
:10064C00683F0008543F00084C3F0008E0010020C0
:10065C00583F000808B5FFF781FF08BD7047FEE75B
:10066C00FEE7FEE7FEE770477047704708B501F0FC
:10067C00EBF801F0F8FE024A13680133136008BD71
:10068C005808002008B5024B186B01F0DFFF08BDBD
:10069C003801002008B5024B586B01F0D7FF08BD9C
:1006AC007801002008B5024801F003FC08BD00BF2A
:1006BC007801002008B5024801F0FBFB08BD00BF23
:1006CC003801002000B583B01C4B9A6942F001023E
:1006DC009A619B6903F001030193019B032001F0D4
:1006EC0013FE002211466FF00B0001F02BFE0022CE
:1006FC0011466FF00A0001F025FE002211466FF042
:10070C00090001F01FFE002211466FF0040001F0F9
:10071C0019FE002211466FF0030001F013FE0022B7
:10072C0011466FF0010001F00DFE002211464FF052
:10073C00FF3001F007FE03B05DF804FB001002402F
:10074C0010B588B00368394A934204D0384A9342B2
:10075C0055D008B010BD374B9A6942F008029A6127
:10076C009B6903F008030193019B304A1368C3F3A0
:10077C000E0313604FF4407304931123059302236B
:10078C0007932D4C04A9204601F0F8FBE36843F4D1
:10079C004073E360284B9B6803F44073B3F5407FD0
:1007AC00F8D1254AD36823F44073D360224B9B685D
:1007BC0013F4407FFAD14FF4407304931223059342
:1007CC000323079304A91C4801F0D8FB1B4A536868
:1007DC0043F002035360174BDA6942F40012DA61FA
:1007EC00DB6903F400130293029B104B1A6842F46A
:1007FC0000421A601A68C2F30E021A60A9E74FF49D
:10080C0040630493122305930323079304A90A4816
:10081C0001F0B4FB074BDA6942F48002DA61DB6960
:10082C0003F480030393039B93E700BF0054004041
:10083C000058004000100240000C01400000014034
:10084C00F0B58DB00368724A934209D00446714AE0
:10085C0093422FD0704A934200F086800DB0F0BDC9
:10086C006E4B9A6942F480429A619A6902F4804212
:10087C000192019A9A6942F004029A619B6903F011
:10088C0004030293029B4FF4007308930223099311
:10089C0003230B93624C08A9204601F06FFB4FF425
:1008AC0080630893002309930A9308A9204601F05A
:1008BC0065FBD3E7594EF36943F40033F361F369F5
:1008CC0003F400330393039BB36943F00403B36154
:1008DC00B36903F004030493049B042308930223D9
:1008EC00099303230B934E4F08A9384601F046FB9E
:1008FC0008230893002509950A9508A9384601F0A4
:10090C003DFB736943F001037361736903F00103E9
:10091C000593059B434E444B336010277760B560BD
:10092C008023F36035617561B561F561304601F086
:10093C00B1FD2663746201222946112001F002FDEB
:10094C00112001F045FD2A462946384601F0FAFCF3
:10095C00384601F03DFD01222946262001F0F2FC2B
:10096C00262001F035FD79E72C4BDA6942F4802220
:10097C00DA61DA6902F480220692069A9A6942F0E8
:10098C0010029A619B6903F010030793079B4FF4C5
:10099C00806308930223099303230B93234D08A927
:1009AC00284601F0EBFA4FF40063089300260996F1
:1009BC000A9608A9284601F0E1FA1D4A536823F06B
:1009CC00300343F0100353601A4D1B4B2B606E60C9
:1009DC00AE608023EB602E616E61AE614FF400530C
:1009EC00EB61284601F056FD65636C623246314678
:1009FC000D2001F0A7FC0D2001F0EAFC012231468C
:100A0C00272001F09FFC272001F0E2FC26E700BF25
:100A1C0000380140004400400048004000100240F3
:100A2C0000080140F4030020800002400010014047
:100A3C0000000140BC03002030000240FEE7000033
:100A4C0030B583B0044688B3236813B113F00F0F8D
:100A5C0032D0236813F0010F56D063682BB1B3F575
:100A6C00803F02D0B3F5A02F2CD1C84B5B6803F0AC
:100A7C000C03042B31D0C54B5B6803F00C03082B23
:100A8C0026D06368B3F5803F00F08380002B40F0E4
:100A9C00A58003F1804303F504331A6822F48032F5
:100AAC001A601A6822F480221A6077E04FF487717A
:100ABC00B748FFF7C3FFC7E740F20F11B448FFF781
:100ACC00BDFFC6E740F21511B148FFF7B7FFCCE701
:100ADC00AE4B5B6813F4803FD3D04FF4003393FAE2
:100AEC00A3F3AA4B1A684FF4003393FAA3F3B3FAA7
:100AFC0083F303F01F0322FA03F313F0010F03D067
:100B0C006368002B00F01383236813F0020F00F0CE
:100B1C00D2802369012B00F2998063691F2B00F2AC
:100B2C009B809A4B5B6813F00C0F00F0A180974BE5
:100B3C005B6803F00C03082B00F094802369002BF6
:100B4C0000F0F780012292FAA2F3B3FA83F39B0030
:100B5C0003F1844303F584031A6000F07DFE05461F
:100B6C00022393FAA3F3894B1A68022393FAA3F393
:100B7C00B3FA83F303F01F0322FA03F313F0010F0C
:100B8C0040F0C88000F068FE401B0228E8D9032022
:100B9C00D6E27E4A136843F4803313606368002BFB
:100BAC0036D000F059FE05464FF4003393FAA3F308
:100BBC00764B1A684FF4003393FAA3F3B3FA83F32A
:100BCC0003F01F0322FA03F313F0010F9CD100F082
:100BDC0043FE401B6428E7D90320B1E2B3F5A02FF4
:100BEC0009D06A4B1A6822F480321A601A6822F40F
:100BFC0080221A60D2E703F18043A3F53C331A68D4
:100C0C0042F480221A601A6842F480321A60C5E7F6
:100C1C0000F022FE05464FF4003393FAA3F35B4B2E
:100C2C001A684FF4003393FAA3F3B3FA83F303F087
:100C3C001F0322FA03F313F0010F3FF465AF00F02A
:100C4C000BFE401B6428E6D9032079E240F24911DF
:100C5C004F48FFF7F3FE60E74FF4A5714C48FFF7E0
:100C6C00EDFE5EE7494B5B6813F4803F7FF466AFA3
:100C7C00022393FAA3F3454B1A68022393FAA3F3C6
:100C8C00B3FA83F303F01F0322FA03F313F0010FFB
:100C9C0003D02369012B40F04C823C48036823F0BD
:100CAC00F8036169F82292FAA2F2B2FA82F201FA1E
:100CBC0002F213430360236813F0080F6FD0A3698B
:100CCC00012B5DD8A369002B00F09180012292FAD0
:100CDC00A2F3B3FA83F32F4941F8232000F0BCFDB3
:100CEC000546022393FAA3F293FAA3F2274A526A17
:100CFC0093FAA3F3B3FA83F303F01F0322FA03F37B
:100D0C0013F0010F48D100F0A7FD401B0228E8D9D1
:100D1C00032015E21D48036823F0F8036169F822EB
:100D2C0092FAA2F2B2FA82F201FA02F213430360CF
:100D3C00C1E7012393FAA3F3B3FA83F39B0003F106
:100D4C00844303F5840300221A6000F085FD0546F8
:100D5C00022393FAA3F30D4B1A68022393FAA3F31D
:100D6C00B3FA83F303F01F0322FA03F313F0010F1A
:100D7C00A1D000F071FD401B0228E9D90320DFE16E
:100D8C004FF4C5710248FFF759FE9BE70010024073
:100D9C00703F000880044242012000F063FD23688C
:100DAC0013F0040F00F0C580E368012B01D9052B6B
:100DBC0042D1BA4BDA6942F08052DA61DB6903F056
:100DCC0080530193019BB64A136843F480731360FC
:100DDC0000F042FD0546B24B1B6813F4807F31D105
:100DEC0000F03AFD401B6428F5D90320A8E101234B
:100DFC0093FAA3F3B3FA83F3AA4A002142F823101F
:100E0C0000F02AFD0546022393FAA3F293FAA3F20B
:100E1C00A24A526A93FAA3F3B3FA83F303F01F03C3
:100E2C0022FA03F313F0010FB9D000F015FD401BAB
:100E3C000228E8D9032083E140F2B7119A48FFF762
:100E4C00FDFDB6E7E368012B0DD0C3B903F1804378
:100E5C0003F504331A6A22F001021A621A6A22F0AC
:100E6C0004021A6204E08D4A136A43F00103136210
:100E7C00E368002B39D000F0EFFC05462BE0052B86
:100E8C0009D0864B1A6A22F001021A621A6A22F001
:100E9C0004021A62ECE7814B1A6A42F004021A62ED
:100EAC001A6A42F001021A62E2E77C4B5A6A022388
:100EBC0093FAA3F3B3FA83F303F01F0322FA03F3B9
:100ECC0013F0010F35D100F0C7FC401B41F2883301
:100EDC00984200F23081022393FAA3F293FAA3F31F
:100EEC00002BE2D06D4B1A6AE1E700F0B5FC054629
:100EFC0015E06A4B5A6A022393FAA3F3B3FA83F30D
:100F0C0003F01F0322FA03F313F0010F11D000F0CA
:100F1C00A3FC401B41F28833984200F20E8102235D
:100F2C0093FAA3F293FAA3F3002BE2D05B4B1A6A69
:100F3C00E1E7E369022B68D8E369002B00F0FF803E
:100F4C00564A526802F00C02082A00F0FB80022B71
:100F5C0040F0C180236A13B1B3F5803F5BD1636A63
:100F6C004BB3B3F5802F26D0B3F5002F23D0B3F5B8
:100F7C00402F20D0B3F5801F1DD0B3F5A01F1AD081
:100F8C00B3F5C01F17D0B3F5E01F14D0B3F5001F95
:100F9C0011D0B3F5101F0ED0B3F5201F0BD0B3F545
:100FAC00301F08D0B3F5401F05D0B3F5501F02D049
:100FBC00B3F5601F35D14FF0807393FAA3F3B3FAF6
:100FCC0083F39B0003F1844303F5840300221A602E
:100FDC0000F042FC05464FF0007393FAA3F32F4B3D
:100FEC001A684FF0007393FAA3F3B3FA83F303F088
:100FFC001F0322FA03F313F0010F18D000F02CFC9E
:10100C00401B0228E7D903209AE040F247212648EA
:10101C00FFF714FD90E74FF414712348FFF70EFD12
:10102C009DE740F251212048FFF708FDC3E7236AF2
:10103C00B3F5803F3AD019494B6823F47413226AF4
:10104C00606A024313434B604FF0807393FAA3F32F
:10105C00B3FA83F39B0003F1844303F58403012269
:10106C001A6000F0F9FB04464FF0007393FAA3F3F7
:10107C000A4B1A684FF0007393FAA3F3B3FA83F395
:10108C0003F01F0322FA03F313F0010F21D100F038
:10109C00E3FB001B0228E7D9032051E000100240BB
:1010AC000070004080044242703F0008A36813B1F6
:1010BC00B3F5003F07D1244A536823F40033A168E9
:1010CC000B435360B7E740F267212048FFF7B6FCAB
:1010DC00F1E7002034E04FF0807393FAA3F3B3FAF6
:1010EC0083F39B0003F1844303F5840300221A600D
:1010FC0000F0B2FB04464FF0007393FAA3F3124BCB
:10110C001A684FF0007393FAA3F3B3FA83F303F066
:10111C001F0322FA03F313F0010F06D000F09CFB1F
:10112C00001B0228E7D903200AE0002008E0012078
:10113C0006E0012004E0032002E0032000E0002090
:10114C0003B030BD0120FBE700100240703F0008E7
:10115C0086B01D4B0FCB0DF1180C0CE90F0040F2B3
:10116C000123ADF80430194B5B6803F00C02082A1C
:10117C0002D0174806B0704703F470124FF4701188
:10118C0091FAA1F1B1FA81F1CA40624412F8100C43
:10119C0013F4803F13D00D4B5B6803F400334FF412
:1011AC00003292FAA2F2B2FA82F2D340634413F8FC
:1011BC00142C074BB3FBF2F300FB03F0DAE7054BFF
:1011CC0003FB00F0D6E700BFA83F00080010024068
:1011DC0000127A0000093D0070B50C460546002847
:1011EC006FD02B6813F00F0F71D0022C75D89E4B5B
:1011FC001B6803F00703A3420BD29B4A136823F02E
:10120C00070323431360136803F00703A34240F062
:10121C0024812B6813F0020F18D0AB687BB1802BA4
:10122C000DD0902B0BD0A02B09D0B02B07D0C02BFE
:10123C0005D0D02B03D0E02B01D0F02B53D18B4A0F
:10124C00536823F0F003A9680B4353602B6813F029
:10125C00010F00F09C806B68022B4AD86B68012B45
:10126C004DD0022B60D0022292FAA2F27F4A116872
:10127C00022292FAA2F2B2FA82F202F01F0221FAD0
:10128C0002F212F0010F00F0EA8078494A6822F06D
:10129C00030213434B6000F0DFFA06466B68012B28
:1012AC0057D0022B64D0714B5B6813F00C0F6ED0CF
:1012BC0000F0D2FA831B41F288329342F3D9032017
:1012CC00BEE04FF42F716A48FFF7B8FB89E740F294
:1012DC00BD216748FFF7B2FB87E740F2BE216448A7
:1012EC00FFF7ACFB83E740F2D7216148FFF7A6FB81
:1012FC00A5E740F2DE215E48FFF7A0FBAEE74FF416
:10130C00003292FAA2F2594A11684FF4003292FA62
:10131C00A2F2B2FA82F202F01F0221FA02F212F0E9
:10132C00010FB2D101208BE04FF0007292FAA2F2C1
:10133C004E4A11684FF0007292FAA2F2B2FA82F29F
:10134C0002F01F0221FA02F212F0010F9DD10120CE
:10135C0076E0464B5B6803F00C03042B17D000F0CF
:10136C007BFA831B41F288329342F2D9032067E067
:10137C003E4B5B6803F00C03082B08D000F06CFAB2
:10138C00801B41F288339842F2D9032058E0364B47
:10139C001B6803F00703A3420AD9334A136823F0EE
:1013AC00070323431360136803F00703A34258D1C8
:1013BC002B6813F0040F14D0EB685BB1B3F5806F9E
:1013CC0008D0B3F5A06F05D0B3F5C06F02D0B3F55C
:1013DC00E06F36D1254A536823F4E063E9680B4388
:1013EC0053602B6813F0080F15D02B695BB1B3F564
:1013FC00806F08D0B3F5A06F05D0B3F5C06F02D0E5
:10140C00B3F5E06F23D1194A536823F4605329696B
:10141C0043EAC1035360FFF79BFE144B5B6803F078
:10142C00F003F02292FAA2F2B2FA82F2D340114AFD
:10143C00D35CD840104B1860002000F0DFF900207E
:10144C0070BD40F232310A48FFF7F8FAC2E740F2B9
:10145C0039310748FFF7F2FAD5E70120F0E7012010
:10146C00EEE70120ECE700BF002002400010024034
:10147C00703F00082C3F000800000020014B18684A
:10148C00704700BF0000002008B5FFF7F7FF074BBF
:10149C005B6803F4E0634FF4E06292FAA2F2B2FAF2
:1014AC0082F2D340024AD35CD84008BD00100240FF
:1014BC003C3F000808B5FFF7E1FF074B5B6803F4FE
:1014CC0060534FF4605292FAA2F2B2FA82F2D34015
:1014DC00024AD35CD84008BD001002403C3F0008D3
:1014EC007047704770477047704710B504460368E3
:1014FC001A6912F0020F11D0DA6812F0020F0DD037
:10150C006FF002021A610123037603689B6913F0E2
:10151C00030F70D0FFF7E6FF0023237623681A69C8
:10152C0012F0040F12D0DA6812F0040F0ED06FF024
:10153C0004021A610223237623689B6913F4407F0B
:10154C005FD02046FFF7CEFF0023237623681A696D
:10155C0012F0080F12D0DA6812F0080F0ED06FF0EC
:10156C0008021A61042323762368DB6913F0030F46
:10157C004ED02046FFF7B6FF0023237623681A6966
:10158C0012F0100F12D0DA6812F0100F0ED06FF0AC
:10159C0010021A61082323762368DB6913F4407F59
:1015AC003DD02046FFF79EFF0023237623681A695F
:1015BC0012F0010F03D0DA6812F0010F36D1236854
:1015CC001A6912F0800F03D0DA6812F0800F34D150
:1015DC0023681A6912F0400F03D0DA6812F0400F3A
:1015EC0032D123681A6912F0200F03D0DA6812F096
:1015FC00200F30D110BDFFF774FF2046FFF773FFAB
:10160C008AE72046FFF76DFF2046FFF76CFF9BE74C
:10161C002046FFF766FF2046FFF765FFACE7204644
:10162C00FFF75FFF2046FFF75EFFBDE76FF001029B
:10163C001A612046FFF754FFC1E76FF080021A6170
:10164C00204600F015FFC3E76FF040021A612046F8
:10165C00FFF74AFFC5E76FF020021A61204600F041
:10166C0006FFC7E7F0B583B00446036813F0130F09
:10167C002CD0236813F0010F5CD0636843B1B3F531
:10168C00807F05D0B3F5007F02D0B3F5407F22D127
:10169C00564BDA6942F08052DA61DB6903F0805311
:1016AC000193019B524A136843F48073136000F05A
:1016BC00D3F805464E4B1B6813F4807F10D100F015
:1016CC00CBF8431B642BF5D903208CE07E214948D1
:1016DC00FFF7B4F9CDE784214648FFF7AFF9D7E718
:1016EC00424B1B6A13F440731DD0626802F44072C3
:1016FC009A4218D03D48016A21F440764FF4803369
:10170C0093FAA3F2B2FA82F23B4D012745F822700C
:10171C0093FAA3F3B3FA83F3002245F8232006626D
:10172C0011F0010F2ED1314A136A23F44073616812
:10173C000B431362236813F0020F11D0A36843B15B
:10174C00B3F5804F05D0B3F5004F02D0B3F5404F41
:10175C003BD1264A536823F44043A1680B435360A2
:10176C00236813F0100F3DD0E368B3F5800F00D061
:10177C0083BB1E4A536823F48003E1680B43536018
:10178C00002030E000F068F8054614E0174B5A6A68
:10179C00022393FAA3F3B3FA83F303F01F0322FAA1
:1017AC0003F313F0010FBED100F056F8401B41F2C9
:1017BC008833984214D8022393FAA3F293FAA3F332
:1017CC00002BE3D0094B1A6AE2E7BA210948FFF76C
:1017DC0035F9BEE74FF48B710648FFF72FF9C8E7D0
:1017EC00032000E0002003B0F0BD00BF0010024059
:1017FC0000700040BC3F00080004424210B5044693
:10180C00FFF73CFE064BA3FB0030800900F0F6FD11
:10181C00002221464FF0FF3000F094FD002010BD57
:10182C00D34D621008B5074A136843F010031360D8
:10183C00032000F069FD0020FFF7E0FFFEF742FFF8
:10184C00002008BD00200240024A136801331360D7
:10185C00704700BF2C040020014B1868704700BF74
:10186C002C04002010B582B00190FFF7F5FF044660
:10187C00FFF7F2FF001B019B9842F9D302B010BD99
:10188C0090F83930DBB2122B03D0322B01D002206E
:10189C0070478368B3F5805F16D0036A5A1C0262E6
:1018AC001A7803685A60C38C013B9BB2C3844BB952
:1018BC000268D36823F08003D3600268D36843F0D6
:1018CC004003D36000207047036A1B880268C3F38F
:1018DC000803536003691BB9036A02330362E2E72E
:1018EC00036A01330362DEE72DE9F84304464268DC
:1018FC007E4B9A4200F29080E3681BB1B3F5005F17
:10190C0040F09080236933B1B3F5806F03D0B3F509
:10191C00C06F40F08D80636933F00C0200D123B9A5
:10192C0040F255717248FFF789F82268136923F465
:10193C004053E1680B431361A36822691343626946
:10194C001A432168CB6823F4B05323F00C031343E0
:10195C00CB602268536923F44073A1690B43536134
:10196C002268644B9A4269D0FFF78EFD00EB800031
:10197C0000EB80006568AD00B0FBF5F55E4EA6FB94
:10198C0005356D092F01FFF77FFD00EB800505EB99
:10199C00850563689B00B5FBF3F9FFF775FD00EB5C
:1019AC00800000EB80006568AD00B0FBF5F5A6FB90
:1019BC0005356D094FF0640808FB15952D0132357E
:1019CC00A6FB05356D0905F0F0053D44FFF75CFD00
:1019DC0000EB800000EB80006768BF00B0FBF7F7FE
:1019EC00FFF752FD00EB800000EB800063689B006A
:1019FC00B0FBF3F0A6FB0030400908FB10784FEA6F
:101A0C00081808F13208A6FB0836C6F343162368FB
:101A1C002E449E60BDE8F88340F252713448FFF7C3
:101A2C000DF869E740F253713148FFF707F869E7A1
:101A3C0040F254712E48FFF701F86CE7FFF73AFDBE
:101A4C0000EB800000EB80006568AD00B0FBF5F5A5
:101A5C00294EA6FB05356D092F01FFF72BFD00EB79
:101A6C00800505EB850563689B00B5FBF3F9FFF773
:101A7C0021FD00EB800000EB80006568AD00B0FB41
:101A8C00F5F5A6FB05356D094FF0640808FB1595B7
:101A9C002D013235A6FB05356D0905F0F0053D44E9
:101AAC00FFF708FD00EB800000EB80006768BF00CB
:101ABC00B0FBF7F7FFF7FEFC00EB800000EB8000BB
:101ACC0063689B00B0FBF3F0A6FB0030400908FBF9
:101ADC0010784FEA081808F13208A6FB0836C6F34E
:101AEC00431623682E449E6094E700BF20AA44004E
:101AFC00F43F0008003801401F85EB51002872D0DC
:101B0C0010B5044683690BB30368384A93420CD072
:101B1C00A2F57442934208D002F58062934204D03D
:101B2C0040F207113248FEF789FFA369FBB1B3F508
:101B3C00807F1CD0B3F5007F19D0B3F5407F16D051
:101B4C004FF484712A48FEF779FF10E00368274AA6
:101B5C0093420CD0A2F57442934208D002F58062F5
:101B6C00934204D04FF486712148FEF767FFA368B7
:101B7C0013B1B3F5805F24D1E36943BB94F83930DA
:101B8C005BB3022384F839302268D36823F4005302
:101B9C00D3602046FFF7A8FE2268136923F4904314
:101BAC0013612268536923F02A0353612268D368B6
:101BBC0043F40053D3600020E063012384F83930F0
:101BCC0010BD4FF487710A48FEF738FFD4E740F296
:101BDC000F110748FEF732FFD0E784F83830204663
:101BEC00FEF72EFECDE70120704700BF0038014004
:101BFC00F43F000810B50446134690F83900C0B203
:101C0C00012801D0222836D1002936D0002B36D01D
:101C1C0094F83820012A34D0012284F8382021622B
:101C2C00A384E3840022E26394F83920D2B2222AFE
:101C3C001DD0122284F83920226B13489062226B3B
:101C4C001248D062226B1248106322680432206B57
:101C5C0000F0BCFC23686FF040021A6022685369E4
:101C6C0043F080035361002084F8380010BD322209
:101C7C0084F83920E0E70220F8E70120F6E701209C
:101C8C00F4E70220F2E700BF391D0008971D000899
:101C9C00A11E000810B50446134690F83900C0B2D6
:101CAC00012801D0122832D1002932D0002B32D099
:101CBC0094F83820012A30D0012284F83820A1620F
:101CCC00A3850022E26394F83920D2B2122A1AD0EA
:101CDC00222284F83920626B11489062626B1148A1
:101CEC00D062626B1048106320680A46011D606B5D
:101CFC0000F06CFC2268536943F0400353610020F0
:101D0C0084F8380010BD322284F83920E3E7022031
:101D1C00F8E70120F6E70120F4E70220F2E700BF24
:101D2C00A11D0008951E0008A11E000808B5034659
:101D3C00406A1B681B6813F0200F0CD10023C3846E
:101D4C000268536923F0800353610268D36843F03F
:101D5C004003D36008BD02F081F8FBE708B50268C8
:101D6C00D36823F04003D36090F83930DBB2322BC8
:101D7C0006D0012380F8393002F070F8002008BD3D
:101D8C00222380F83930F7E7704708B5406AFFF72F
:101D9C00FBFF08BD08B50346406A1B681B6813F0BF
:101DAC00200F0ED10023C3850268536923F0400332
:101DBC00536190F83930DBB2322B05D0012380F817
:101DCC00393002F02DF808BD122380F83930F8E7CD
:101DDC0008B590F83930DBB2222B01D0322B4ED122
:101DEC008368B3F5805F29D00369002B3AD103686F
:101DFC005A68836A591C81621A70C38D013B9BB26D
:101E0C00C385002B3DD10268D36823F02003D36037
:101E1C0090F83930DBB2322B2DD00268D36823F422
:101E2C008073D3600268536923F00103536101236B
:101E3C0080F8393001F0F4FF002023E0826A036956
:101E4C0043B903685B68C3F308031380836A0233E6
:101E5C008362D2E703685B68DBB21380836A013369
:101E6C008362CAE703685B68826A511C816203F073
:101E7C007F031370C1E7122380F83930DAE70220B0
:101E8C0000E0002008BD704708B5406AFFF7FBFF73
:101E9C0008BD704708B5406A0023C385C38401237D
:101EAC0080F83930C36B43F01003C363FFF7F1FFC5
:101EBC0008BD10B582B0044603681968DA6811F0E1
:101ECC00010F06D002F480721AB1C26B42F001020B
:101EDC00C26319685A6902F0010211F0020F04D0B2
:101EEC001AB1E16B41F00401E163196811F0040FC0
:101EFC0004D01AB1E16B41F00201E163196811F0F1
:101F0C00080F04D01AB1E26B42F00802E2631A68BF
:101F1C00DB6803F0200312F0200F00D0ABB923686C
:101F2C001A68DB6803F0800312F0800F00D083B9CD
:101F3C0023681A68DB6803F0400312F0400F00D0EE
:101F4C005BB9E36B6BB902B010BD2046FFF740FFE5
:101F5C00E5E72046FFF794FCEAE72046FFF7FEFE94
:101F6C00EFE723681A6801925B680193019B0123D8
:101F7C0084F839302046FFF78CFFE4E72DE9F04375
:101F8C0083B080460E46BB4B984213D003F580635A
:101F9C0098420FD003F5806398420BD003F5806311
:101FAC00984207D003F58063984203D0CF21B24802
:101FBC00FEF744FD33882BB37368012B1ED9112B0C
:101FCC001CD0022B1AD0122B18D0AC4A934215D02D
:101FDC0002F58012934211D002F5801293420DD07B
:101FEC00A2F5F812934209D002F58012934205D063
:101FFC0002F58012934201D0032B08D14FF0000957
:10200C004D46E2E0D0219C48FEF718FDD4E7D121E3
:10201C009948FEF713FDF1E7994A934210D007D97E
:10202C00984A93420CD002F58032934208D019E0C2
:10203C00A2F58012934203D002F5702293420DD187
:10204C00B368022B7ED8B368002B00F08980012B7B
:10205C007ED0C8F814404FF0080903E0A2F58012B6
:10206C009342EDD0FF2F7ED84046FF2F7ED8AA009A
:10207C0003680F21914023EA010309FA02F213438A
:10208C000360736813F0805F00F09E807E4B9A694A
:10209C0042F001029A619B6903F001030193019BD9
:1020AC00AA08911C794B53F8210005F00303990001
:1020BC000F238B4020EA03006E4B98455CD003F550
:1020CC008063984500F0D28003F58063984500F05A
:1020DC00CF8003F5806398454CD004234DE0F36822
:1020EC00013B022B02D8D6F80C90BBE7E7216248E3
:1020FC00FEF7A4FCF7E7F368013B022B03D8F36867
:10210C0003F10409AEE7EE215B48FEF797FCF6E716
:10211C00F368013B022B03D8F36803F10809A1E72C
:10212C00F5215548FEF78AFCF6E7F368013B022BD4
:10213C0003D8F36803F10C0994E7FC214E48FEF731
:10214C007DFCF6E740F209114B48FEF777FC7AE785
:10215C00C8F810404FF0080984E74FF0000981E7F8
:10216C004FF004097EE708F104007EE7A5F10802B0
:10217C0092007DE7032300E000238B4003430232EF
:10218C00424941F82230736813F4803F00F082809A
:10219C003F4A13683B431360736813F4003F7FD0CE
:1021AC003B4A53683B435360736813F4801F7DD0E4
:1021BC00374A93683B439360736813F4001F7BD0DA
:1021CC00334AD3681F43D76001350F2D7AD80124C9
:1021DC00AC40336803EA040734EA0303F4D1254B1B
:1021EC00984513D003F5806398450FD003F58063B1
:1021FC0098450BD003F58063984507D003F58063B1
:10220C00984503D0DF211C48FEF718FC7368122B8D
:10221C003FF602AF122B3FF625AF01A252F823F086
:10222C004D200008EB2000081D2100086721000844
:10223C00712000087120000871200008712000082E
:10224C00712000087120000871200008712000081E
:10225C00712000087120000871200008712000080E
:10226C00712000080321000837210008012384E7AE
:10227C00022382E7000801402C40000800001110E6
:10228C00000022100000311000100240000001403C
:10229C00000401400D4A136823EA070313607BE72F
:1022AC000A4A536823EA070353607DE7074A936899
:1022BC0023EA070393607FE7044AD36823EA0707FE
:1022CC00D76081E703B0BDE8F08300BF0004014094
:1022DC0070B5054614460E4621B1012C08D86CB1D8
:1022EC002E6170BD4FF4F2710648FEF7A7FBF4E7C0
:1022FC0040F2E5110348FEF7A1FBF0E736042E612E
:10230C00EFE700BF2C40000810B50446C31E042B99
:10231C000FD80A4AD36823F4E0631B041B0C240275
:10232C0004F4E064234343F0BF6343F40033D3600D
:10233C0010BDBA210248FEF781FBEAE700ED00E090
:10234C006440000870B505460C4616460F2A25D881
:10235C000F2C28D81B4BDB68C3F30223C3F10701F6
:10236C00042928BF04211A1D062A21D9033B4FF04A
:10237C00FF3202FA01F124EA01049C4002FA03F351
:10238C0026EA03063443002D14DB2401E4B205F1E4
:10239C00604505F5614585F8004370BDD2210A48BA
:1023AC00FEF74CFBD4E7D3210748FEF747FBD1E7F8
:1023BC000023DCE705F00F052401E4B2034B5C5568
:1023CC00EBE700BF00ED00E06440000814ED00E016
:1023DC0010B5041E08DB04F01F02640901239340AE
:1023EC00044A42F8243010BDE6210348FEF726FBD0
:1023FC00F1E700BF00E100E0644000080138B0F1F3
:10240C00807F0AD2064B5860064AF02182F82310CE
:10241C000020986007221A6070470120704700BFA7
:10242C0010E000E000ED00E010B50446042800D0F8
:10243C0038B9042C0BD0094A136823F00403136039
:10244C0010BD4FF4DF710648FEF7F8FAF1E7034AC6
:10245C00136843F004031360F2E700BF10E000E0E0
:10246C0064400008704708B5FFF7FCFF08BD7047D3
:10247C00704710B4046863604368102B05D0036880
:10248C0099600368DA6010BC704703689A6003684F
:10249C00D960F8E7002800F0928010B50446036874
:1024AC00484A934215D01432934212D014329342BC
:1024BC000FD0143293420CD01432934209D0143200
:1024CC00934206D01432934203D0B5213E48FEF716
:1024DC00B5FA636823B1102B02D0B3F5804F4BD102
:1024EC00A368402B01D0002B4BD1E368802B01D08B
:1024FC00002B4BD123692BB1B3F5807F02D0B3F500
:10250C00007F48D163692BB1B3F5806F02D0B3F56E
:10251C00006F45D1A3690BB1202B46D1E36943B1C0
:10252C00B3F5805F05D0B3F5005F02D0B3F5405F23
:10253C0040D194F821300BB984F82030022384F870
:10254C00213021680A6822F47F5222F0300263683D
:10255C00A0680343E06803432069034360690343B5
:10256C00A0690343E069034313430B6000206063DD
:10257C00012384F8213010BDB6211348FEF75EFA12
:10258C00AEE7B7211048FEF759FAAEE7B8210E486E
:10259C00FEF754FAAEE7B9210B48FEF74FFAB1E754
:1025AC00BA210948FEF74AFAB4E7BB210648FEF700
:1025BC0045FAB3E7BC210448FEF740FAB9E701201D
:1025CC00704700BF080002409C400008F8B51D464B
:1025DC0090F82030012B34D004460E4617460123C8
:1025EC0080F82030022380F821306A1E4FF6FE73EB
:1025FC009A4220D82268136823F0010313602B46FB
:10260C003A4631462046FFF734FF2268136843F000
:10261C00020313602268136843F0040313602268FA
:10262C00136843F0080313602268136843F0010336
:10263C0013600020F8BD40F261110348FEF7FEF96B
:10264C00D8E70220F6E700BF9C40000810B504460E
:10265C00984B1A68036898498B4214D014318B42FA
:10266C0032D014318B4231D014318B4231D01431F1
:10267C008B4231D014318B4202D04FF0006103E019
:10268C004FF4000100E008210A423CD01A6812F015
:10269C00080F38D01A6822F008021A602368864A9C
:1026AC0093421FD01432934245D01432934244D0FB
:1026BC001432934244D01432934244D01432934295
:1026CC000DD04FF000620EE08021DDE74FF4006189
:1026DC00DAE74FF40041D7E74FF40021D4E74FF489
:1026EC00000200E00822734B5A60636B43F0010355
:1026FC006363042384F82130002384F82030236B97
:10270C000BB1204698476B4B1A6823686A498B4279
:10271C001FD014318B4241D014318B4240D0143134
:10272C008B4240D014318B4240D014318B420DD0AF
:10273C004FF080610EE08022D5E74FF40062D2E7C3
:10274C004FF40042CFE74FF40022CCE74FF4800166
:10275C0000E004210A4239D01A6812F0040F35D077
:10276C001A6812F0200F03D11A6822F004021A60C2
:10277C002368514A93421FD0143293423ED01432F4
:10278C0093423DD0143293423DD0143293423DD00B
:10279C00143293420DD04FF080620EE04021D9E705
:1027AC004FF48061D6E74FF48041D3E74FF480219A
:1027BC00D0E74FF4800200E004223E4B5A60112314
:1027CC0084F82130E36A0BB120469847394B1A68DC
:1027DC00236839498B421FD014318B4241D01431BC
:1027EC008B4240D014318B4240D014318B4240D0BC
:1027FC0014318B420DD04FF000710EE04022DCE71B
:10280C004FF48062D9E74FF48042D6E74FF4802230
:10281C00D3E74FF4001100E002210A423ED01A68BF
:10282C0012F0020F3AD01A6812F0200F03D11A6876
:10283C0022F002021A6023681F4A93421FD01432FE
:10284C0093422CD0143293422BD0143293422BD07F
:10285C00143293422BD0143293420DD04FF00072AD
:10286C000EE02021D9E74FF40071D6E74FF4005168
:10287C00D3E74FF40031D0E74FF4001200E002220E
:10288C000C4B5A60636B6363012384F82130002383
:10289C0084F82030A36A0BB12046984710BD202243
:1028AC00EEE74FF40072EBE74FF40052E8E74FF419
:1028BC000032E5E7000002400800024070470000CB
:1028CC00002844D010B504460268234B9A4203D02A
:1028DC00A6212248FEF7B2F86368062B28D8A36815
:1028EC00B3F5805F29D22368DA6812F0010F03D0A8
:1028FC00DB6813F0020F2CD1637B1BB302236373D1
:10290C00236845F255521A602268536823F0070376
:10291C0061680B4353602268936823F47F6323F050
:10292C000F03A1680B43936001236373002010BD58
:10293C00A7210A48FEF782F8D1E7A8210748FEF73D
:10294C007DF8D0E723732046FFF7B8FFD6E70120C8
:10295C0070470120EBE700BF00300040D440000876
:10296C00037B012B0FD00223437303684CF6CC423C
:10297C001A6003684AF6AA221A60012343730023E3
:10298C000373184670470220704738B5037B012B40
:10299C001FD004460123037302234373FEF75CFF2D
:1029AC0005462368DA6812F0020F0AD0FEF754FFCE
:1029BC00431BB3F57A7FF4D9032060730023237390
:1029CC0006E04AF6AA221A600123637300202073E2
:1029DC0038BD0220FCE700004368124A934209D834
:1029EC005800B1FBF0F040F6FC73184200D0704771
:1029FC000420704782685AB903EB4300B1FBF0F036
:102A0C0040F40040C0F30B03002BF0D10120EEE7A3
:102A1C0003EB830000EB8000B1FBF0F040F440408E
:102A2C00F0E700BFA086010003685A6912F4806FBA
:102A3C0001D1002070475A6922F480625A61042344
:102A4C008363202380F83530002380F83430012054
:102A5C0070472DE9F04106460C4690461D46FEF7A0
:102A6C00FBFE0746B8F1000F1AD043E025B1FEF784
:102A7C00F3FEC01BA84213D9202386F8353000235F
:102A8C0086F83430032019E033689B6924EA030389
:102A9C009BB2003B18BF01237BB1B5F1FF3FE5D1E1
:102AAC00C4F30743012BEFD133685B6924EA0303BA
:102ABC009BB2003B18BF0123EEE74046BDE8F08116
:102ACC0025B1FEF7C9FEC01BA84213D9202386F8F6
:102ADC003530002386F834300320EFE733689A69E9
:102AEC0024EA020292B2B2FA82F252097AB1B5F138
:102AFC00FF3FE5D1C4F30743012BEFD133685A698B
:102B0C0024EA020292B2B2FA82F25209EEE70020F3
:102B1C00D4E7F8B504460D461646FEF79DFE07466B
:102B2C0031E01A6842F400721A602268536923F487
:102B3C00806353610423A363202384F8353000237E
:102B4C0084F8343001202CE026B1FEF785FEC01B42
:102B5C00B04218D9202384F83530002384F834305F
:102B6C0003201EE023689B6925EA03039BB2003B0C
:102B7C0018BF0123A3B123685A6912F4806FD0D116
:102B8C00B6F1FF3FE0D1C5F30743012BEAD123682F
:102B9C005B6925EA03039BB2003B18BF0123E9E7FD
:102BAC000020F8BD70B504460D4616460268136841
:102BBC0043F480731360334600224FF00111FFF78A
:102BCC0048FF60BB2369B3F5804F0ED1236805F035
:102BDC00FE051D61324613492046FFF79AFFF8B1F6
:102BEC00A36B042B19D003201AE0EB11226803F01D
:102BFC00060343F0F003136132460B492046FFF7FE
:102C0C0088FF30B1A36B042B01D0032008E0012016
:102C1C0006E02368EDB21D61DCE7012000E0032033
:102C2C0070BD00BF020001000800010070B5044631
:102C3C000D46FEF711FE064623685B6913F0800F04
:102C4C0018D12046FFF7F0FEB0B9B5F1FF3FF3D035
:102C5C0025B1FEF701FE801BA842EDD9A36B43F012
:102C6C002003A363202384F83530002384F8343008
:102C7C00032000E0002070BD0120FCE770B5044685
:102C8C000D46FEF7E9FD064623685B6913F0040F59
:102C9C0018D12046FFF7C8FEB0B9B5F1FF3FF3D00D
:102CAC0025B1FEF7D9FD801BA842EDD9A36B43F0EB
:102CBC002003A363202384F83530002384F83430B8
:102CCC00032000E0002070BD0120FCE7002800F08C
:102CDC00B38038B504460368584A934208D002F5CD
:102CEC008062934204D04FF4A5715548FDF7A6FEBF
:102CFC006368013B534A93425ED8A36813B1B3F5A2
:102D0C00804F5FD1E36823F47F7323F00303002B20
:102D1C005ED12369B3F5804F02D0B3F5404F5DD13E
:102D2C006369012B60D8A36933F0FE0362D1E369B8
:102D3C000BB1402B64D1236A0BB1802B66D194F874
:102D4C003530002B68D0242384F835302268136882
:102D5C0023F001031360FEF797FB01463A4BA3FBEC
:102D6C0000239B0C226853606068384A904259D803
:102D7C0001332268136225682046FFF72DFEE861B7
:102D8C00E369216A22680B4313602369E1682268B6
:102D9C000B4393606369A16922680B43D36022687B
:102DAC00136843F0010313600020A063202384F810
:102DBC00353084F8360038BD40F24B112048FDF711
:102DCC003DFE9AE74FF4A6711D48FDF737FE99E7D3
:102DDC0040F24D111A48FDF731FE9AE74FF4A771F6
:102DEC001748FDF72BFE9BE740F24F111448FDF7F7
:102DFC0025FE98E74FF4A8711148FDF71FFE96E7E2
:102E0C0040F251110E48FDF719FE94E74FF4A971E9
:102E1C000B48FDF713FE92E784F834302046FDF79B
:102E2C008FFC90E74FF4967202FB03F3084AA2FB67
:102E3C0003239B0901339CE7012070470054004099
:102E4C000C4100087F1A060083DE1B43A08601009C
:102E5C00D34D6210F0B583B01D4690F83530DBB21F
:102E6C00202B40F0858004460F461646002A00F0C1
:102E7C0082800DB901207CE042F21073012241499D
:102E8C00FFF7E7FD002878D194F83430012B76D089
:102E9C00012384F834302268136823F40063136030
:102EAC00212384F83530102384F836300023A363B3
:102EBC00089A39462046FFF775FE60B1A36B042BC8
:102ECC0004D0002384F83430032052E0002384F82B
:102EDC00343001204DE023685A6901929B690193BB
:102EEC00019B0DE0A36B042B01D0032041E0226871
:102EFC00136843F40073136001203AE01D46164634
:102F0C00CDB108992046FFF791FE0028EAD1324650
:102F1C00236812F8011B19616B1E9BB2216848696A
:102F2C0010F0040FEAD0002BE8D013780B61AB1E25
:102F3C009BB2B21CE2E708992046FFF79FFE58B1FE
:102F4C00A36B042B01D0032013E02268136843F415
:102F5C000073136001200CE02268136843F40073C3
:102F6C001360202384F83530002384F8343000E0DB
:102F7C00022003B0F0BD0120FBE70220F9E702209C
:102F8C00F7E700BF0200100038B504460D460128D3
:102F9C0004D8054B53F824305D6038BD2B21034811
:102FAC00FDF74CFDF5E700BF6C41000844410008FB
:102FBC0008B5044B53F82000FFF788FE00B908BD94
:102FCC000120FCE76C41000800B583B013460A22CF
:102FDC0000920A4641000548FFF73CFF10B903B0C8
:102FEC005DF804FB4FF0FF30F9E700BF3400002020
:102FFC0008B50248FEF779FA08BD00BFAC00002006
:10300C0008B50248FEF771FA08BD00BFAC000020FD
:10301C00014B5860704700BFE8000020014B9860DE
:10302C00704700BFE800002008B50548FFF748FCD2
:10303C0008B1012008BD0248FFF792FC0020F9E717
:10304C00E800002008B50248FFF79FFC08BD00BF50
:10305C00E800002038B504460D46022804D8054B7C
:10306C0053F824305D6038BD38210348FDF7E6FC89
:10307C00F5E700BFA04100087441000808B5044BF7
:10308C0053F82000FEF73AFD00B908BD0120FCE71B
:10309C00A041000808B50A4601460448FEF7AAFDFF
:1030AC0000B908BD4FF0FF30FBE700BF380100202E
:1030BC0008B582B20348FEF7EDFD00B908BD4FF02C
:1030CC00FF30FBE778010020014B1860704700BF10
:1030DC0030040020014B5860704700BF30040020C2
:1030EC00014B9860704700BF30040020014BD86042
:1030FC00704700BF3004002010B50446032806D8E2
:10310C000549064B53F82400FEF738FF10BD232168
:10311C000348FDF793FCF3E730040020D44100088A
:10312C00AC41000870B504460D461646032807D876
:10313C00F2B22946054B53F82400FFF7C9F870BDCD
:10314C0028210348FDF77AFCF2E700BFD4410008C0
:10315C00AC4100080FB400B583B004A951F8040BBE
:10316C00019100F0B6F803B05DF804EB04B07047C1
:10317C0038B505460B4B1C680B4B1B7843B96319D0
:10318C00084A1268934203D9012000F033FEF3E79A
:10319C002C44044B1B689C4201D9002038BD0120F3
:1031AC00FCE700BF58080020B801002008B56420D7
:1031BC00FFF7DEFF98B90A4B1B686BB1084A591C24
:1031CC0011600A21197007481168091A89B2FFF7B2
:1031DC0061FF054B00221A70014B024A1A6008BDB0
:1031EC004008002040040020B80100200FB430B586
:1031FC0083B006AC54F8045B6420FFF7B9FF01946C
:10320C002146284600F065F8074B1B68074A9B1AB5
:10321C00B3F5617F04DC03B0BDE8304004B0704707
:10322C00FFF7C4FFF7E700BF400800204004002070
:10323C0008B42DE9F04183B007460D46164609AC9B
:10324C0054F8048B6420FFF793FF3B463246294623
:10325C000848FFF77FFF01942146404600F039F8FB
:10326C000548FFF777FFFFF7A1FF03B0BDE8F0417A
:10327C0001B07047E441000880430008014B012273
:10328C001A707047B801002010B504460A2807D000
:10329C00094B1B6843B1591C074A11601C7010BDC7
:1032AC000D20FFF7F1FFF3E7044B1B68002BF6D062
:1032BC0020469847F3E700BF400800204408002050
:1032CC0010B50446207818B10134FFF7DDFFF9E79B
:1032DC0010BD2DE9F04786B00546019102E0FFF7DD
:1032EC00D3FF25462C4614F8010B002800F0E8808B
:1032FC002528F4D102352278302A04D02D2A06D084
:10330C00002600240EE0A51C62780126F9E7A51C16
:10331C0062780226F5E704EB840402EB4404303CAB
:10332C0015F8012BA2F13003DBB2092BF3D96C2A6F
:10333C0001D04C2A03D146F0040615F8012B002AC3
:10334C0000F0BE80602A03D9A2F12003DBB200E0BA
:10335C001346A3F14201162948D8DFE801F04B319E
:10336C0038474747474747474747474D4747470C25
:10337C00473847474500019B1A1D0192D3F800902E
:10338C00002700E0013719F80730002BFAD103E0D1
:10339C002020FFF779FF474616F0020F04D107F102
:1033AC000108A742F4D347464846FFF789FF03E0DC
:1033BC002020FFF769FF37467E1CA742F8D391E720
:1033CC00019B1A1D01921878FFF75EFF8AE70A200D
:1033DC0016F0040F12D001990F1D01970968442BA8
:1033EC0018D04FF0000C2BE01020F1E71046FFF73F
:1033FC004BFF77E70220EBE70820E9E7442B04D0EA
:10340C0001990F1D01970968E9E701990F1D0197B3
:10341C000968E4E70029E4DA494246F00806E0E7E7
:10342C0027273B44DBB20CF1010730330DF11808B0
:10343C00E04408F8103C70450FD80F2F0DD8BC464F
:10344C00B1FBF0F700FB1713DBB28E463946092BA4
:10345C00E9D9782AE4D00727E3E716F0080F06D05D
:10346C0006AB1F442D2307F8103C0CF1020716F095
:10347C00010F0ED04FF0300AB84616F0020F0CD1E7
:10348C0008F10109A04507D25046FFF7FDFEC846DA
:10349C00F3E74FF0200AEFE7C846013F06AB3B4489
:1034AC0013F8100CFFF7F0FE002FF6D108F101060F
:1034BC00A045BFF417AF2020FFF7E6FEB046F5E7B6
:1034CC0006B0BDE8F087000070B505460E464FF417
:1034DC0016510220FFF7BEFD0220FFF7CFFD02467A
:1034EC0008B1104670BD144B1C68344429460820A2
:1034FC00FFF7DEFD04E01148FFF778FEFFF756FEFC
:10350C000D4B1B68A34203D20D4B1B68002BF2D151
:10351C000B4B1A6872B91346022B03DC0021E954D9
:10352C000133F9E7032302E04021E9540133062B70
:10353C00FADDD6E70122D4E758080020F441000850
:10354C00BC01002010B4802806D0174B1B68062B3A
:10355C000FDC164AD05402E0134B00221A60124BB7
:10356C001B68082B1EDC01330F4A1360002010BCB3
:10357C00704701220023062A05DC0C4CA45C234472
:10358C00DBB20132F7E7434013F07F0F01D1002388
:10359C0005E00220EBE7054AD25CCA540133072B45
:1035AC00F9DDDCE70320E2E7480800204C080020A6
:1035BC00F8B505460026104B1B68B3420BDC0F46D2
:1035CC000024072C11DC3946285DFFF7BBFF0646AB
:1035DC0058B90134F5E7084A1368013B13600146FA
:1035EC000820FFF765FD304604E029460820FFF768
:1035FC005FFD3046F8BD00BFBC010020C37813F05E
:10360C00800F04D1C37823B1C07840387047402074
:10361C0070476FF03F007047037913F0800F04D1AF
:10362C00037923B1007940387047402070476FF020
:10363C003F007047437913F0800F04D1437923B1D5
:10364C00407940387047402070476FF03F0070471A
:10365C00837913F0800F04D1837923B180794038BA
:10366C007047402070476FF03F007047F0B583B053
:10367C000446837803F00303032B00F0BB808378AC
:10368C0013F0010F40F0B18000258E48FFF7AEFD1E
:10369C00002D40F0B180A37803F00303032B00F05E
:1036AC00B480A37813F0020F40F0AA80002586485E
:1036BC00FFF79CFD002D40F0AA80A37803F00C03CB
:1036CC000C2B00F0AD80A37813F0040F40F0A38016
:1036DC0000257E48FFF78AFD002D40F0A380A378DB
:1036EC0003F00C030C2B00F0A680A37813F0080F4A
:1036FC0040F09C8000257648FFF778FD002D40F0C7
:10370C009C80637813F0010540F09B807148FFF7B3
:10371C006DFD002D40F09980A37813F0200540F04A
:10372C0098806D48FFF762FD002D40F09680A378DD
:10373C0013F0400540F095806848FFF757FD002DC9
:10374C0040F09380A37813F0100540F09280644809
:10375C00FFF74CFD002D40F09080637813F00205CC
:10376C0040F08F805F48FFF741FD002D40F08D80C9
:10377C00637813F0040540F08C805B48FFF736FD4E
:10378C00002D40F08A80637813F0080540F08980A2
:10379C005648FFF72BFD002D40F08780637813F01F
:1037AC00100540F086805248FFF720FD002D40F0B8
:1037BC0084805048FFF71AFD2046FFF71FFF05468F
:1037CC002046FFF729FF06462046FFF733FF074642
:1037DC002046FFF73DFF00903B46324629464648BF
:1037EC00FFF704FD002003B0F0BD4448FFF7FEFCDA
:1037FC0001254AE7002548E74148FFF7F7FC4AE76F
:10380C003E48FFF7F3FC012551E700254FE73C4804
:10381C00FFF7ECFC51E73948FFF7E8FC012558E7C6
:10382C00002556E73648FFF7E1FC58E73348FFF729
:10383C00DDFC01255FE700255DE73148FFF7D6FC8D
:10384C005FE72E48FFF7D2FC60E72D48FFF7CEFC70
:10385C0062E72A48FFF7CAFC63E72948FFF7C6FC72
:10386C0065E72648FFF7C2FC66E72548FFF7BEFC74
:10387C0068E72248FFF7BAFC69E72148FFF7B6FC76
:10388C006BE71E48FFF7B2FC6CE71D48FFF7AEFC78
:10389C006EE71A48FFF7AAFC6FE71948FFF7A6FC7A
:1038AC0071E71648FFF7A2FC72E71548FFF79EFC7C
:1038BC0074E71248FFF79AFC75E71148FFF796FC7E
:1038CC0077E700BF084200082042000828420008A1
:1038DC0030420008384200084042000844420008C8
:1038EC004C420008544200085C4200086442000844
:1038FC006C4200088043000874420008F84100083C
:10390C001042000830B585B005464388104CA4FB26
:10391C000324E40842F20F7293420ED82A79230A48
:10392C0043EA82038DF80C308DF80D40022203A976
:10393C00287800F043F805B030BD0278019300926E
:10394C00044B202204490548FFF772FCE6E700BF50
:10395C00CDCCCCCC8C420008D0420008A44200084C
:10396C0010B5044601780F48FFF740FC2379032B70
:10397C0006D8DFE803F0020A0E120B48FFF736FCFC
:10398C0061880A48FFF732FC10BD0948FFF72EFC8E
:10399C00F6E70848FFF72AFCF2E70748FFF726FC92
:1039AC00EEE700BFA8420008B4420008C442000879
:1039BC00B8420008BC420008C0420008F0B585B00F
:1039CC0005460E461446FFF7FFFA074610B938466F
:1039DC0005B0F0BD3378029301940095034B1A2285
:1039EC0003490448FFF724FCF1E700BFDC42000860
:1039FC0004430008A442000810B50024012C0ADC82
:103A0C0004EB4400054B03EB4000FFF77BFF034640
:103A1C0010B90134F2E70023184610BD0400002051
:103A2C0010B5002407E004EB44025300034818448B
:103A3C00FFF796FF0134012CF5DD10BD04000020CA
:103A4C0008B505490020FFF79FFA0020FFF7B0FAF0
:103A5C0000B908BD0120FCE7A086010000207047DA
:103A6C0000B595B009230A934FF480330B930022D1
:103A7C000C92012210920222119212934FF4E01335
:103A8C0013930AA8FCF7DCFF48BB0F230593022114
:103A9C000691002307934FF480620892099305A8BE
:103AAC00FDF79AFB28BB022301934FF400430393C9
:103ABC0001A8FDF7D7FD20BBFDF7E0FC4FF47A73AE
:103ACC00B0FBF3F0FEF79AFC0420FEF7ADFC0022ED
:103ADC0011464FF0FF30FEF735FC002006E00D4B91
:103AEC00D1220D490D48FFF7A3FB012015B05DF85D
:103AFC0004FB0B4BDC2208490848FFF799FB01201B
:103B0C00F4E7084BE32204490448FFF791FB01203A
:103B1C00ECE700BF1043000858440008A44200081A
:103B2C00204300083443000800B585B0284B9A693F
:103B3C0042F004029A619A6902F004020092009A1F
:103B4C009A6942F008029A619A6902F0080201929D
:103B5C00019A9A6942F010029A619A6902F0100275
:103B6C000292029A9A6942F020029A619B6903F0D0
:103B7C0020030393039B4FF40050FFF7A5FA00209A
:103B8C00FFF7A8FA0020FFF7ABFA0220FFF7B4FA10
:103B9C002020FFF799FA0120FFF79CFA0220FFF78B
:103BAC00A5FA0020FFF7A8FA1020FFF78DFA0948B4
:103BBC00FFF790FA0020FFF793FA0220FFF79CFA28
:103BCC00002220211046FFF7ADFA05B05DF804FB8A
:103BDC00001002400000111038B5FDF723FE10B1A3
:103BEC000124204638BDFFF73BFF08B10124F8E75C
:103BFC000120FFF743FAFFF7D9FAFFF721FF04463C
:103C0C000028EED1FFF790FFFCF702FD1A4BA9221A
:103C1C001A491B48FFF70CFB1A491B48FFF754FCC9
:103C2C00D0B9164D164C194BAF2229462046FFF73A
:103C3C00FFFA174BB22229462046FFF7F9FA022069
:103C4C00FFF7E6F9FA20FFF7E9F9FFF7EDF904467B
:103C5C0050B9FCF7DDFCC4E70E4BAB2207490E480C
:103C6C00FFF7E6FA0124BCE70C4BB72229460A48B9
:103C7C00FFF7DEFAB5E700BF5043000850440008D8
:103C8C00543F0008A08601005C0800208443000813
:103C9C00984300086C430008A4420008A84300089D
:103CAC0008B5FCF7D7FC08BD08B5FFF7A5FE08BDA5
:103CBC0000B583B0FFF790FF90B90A20FFF7CEFE56
:103CCC00C8B93B4B00221A603A4B44223A493B4854
:103CDC00FFF7AEFA3A48FFF789FAFFF767FA39E0CF
:103CEC000090384B352234493748FFF7A1FA64204D
:103CFC00FFF73EFA09E00090344B3C222E49324843
:103D0C00FFF796FA6420FFF733FA012003B05DF851
:103D1C0004FB274B1A682E4BA3FB0213DB0803EBA7
:103D2C008303A2EB4303042BF3D1FFF7BDFF80BB4E
:103D3C001F4B1A68264BA3FB0213DB0803EB830310
:103D4C00B2EB430FF4D1234B1A6801321A601B6893
:103D5C00132B26D8FFF776F9FFF7A2FF144B1A683E
:103D6C001D4BA3FB02131B09322101FB1323092B4F
:103D7C00CFD81A48FFF73AFA1948FFF777FCFFF744
:103D8C004FFE184B19781848FFF730FAFFF70EFA68
:103D9C00BFE70090154B602207490B48FFF748FA24
:103DAC00B3E7134B692204490748FFF741FAFEE7D2
:103DBC0058080020F443000848440008543F000809
:103DCC0000440008C4430008A4420008D84300087B
:103DDC00CDCCCCCC540800201F85EB5104440008FA
:103DEC005C080020C00100200C44000810440008AE
:103DFC002C44000810B582B00446084B1B68019394
:103E0C00019B2344054A1268934202D9FFF71AF921
:103E1C00F6E7FFF717F902B010BD00BF58080020F5
:103E2C0008B508490848FFF7C3FB18B9074B00222F
:103E3C001A6008BD064B4FF4887206490648FFF716
:103E4C00F7F9F3E75C080020640800205408002010
:103E5C004044000868440008A442000808B5FFF775
:103E6C000DFA08BD002103E00B4B5B5843500431A5
:103E7C000A480B4B42189A42F6D30A4A02E0002336
:103E8C0042F8043B084B9A42F9D3FCF7F1F9FCF7E2
:103E9C007BF9FFF70DFF70478844000800000020F5
:103EAC00C4010020C40100206C080020FEE70000C3
:103EBC00F8B500BFF8BC08BC9E467047F8B500BF0B
:083ECC00F8BC08BC9E467047DB
:103ED4006C6566742061646A757374000000000088
:103EE40072696768742061646A7573740000000005
:103EF4007374656572696E672074696D650000008E
:103F040072632074696D656F7574000000000000B1
:103F1400726320636E747220746865726573000046
:103F240064000000E1000000000000000000000048
:103F3400010203040607080900000000010203044B
:103F44002A31306D7300000068656C6C000000005D
:103F54006D736700706C7A20636F6E6669726D0AA8
:103F640025640A00617070496E6974004472697650
:103F74006572732F53544D3332463178785F48411C
:103F84004C5F4472697665722F5372632F73746D3C
:103F94003332663178785F68616C5F7263632E6375
:103FA4000000000002030405060708090A0B0C0DB3
:103FB4000E0F101000000000447269766572732FB2
:103FC40053544D3332463178785F48414C5F4472E4
:103FD400697665722F5372632F73746D3332663151
:103FE40078785F68616C5F7263635F65782E6300E5
:103FF400447269766572732F53544D333246317867
:10400400785F48414C5F4472697665722F537263DE
:104014002F73746D3332663178785F68616C5F75C5
:104024006172742E63000000447269766572732FA6
:1040340053544D3332463178785F48414C5F447273
:10404400697665722F5372632F73746D33326631E0
:1040540078785F68616C5F6770696F2E6300000039
:10406400447269766572732F53544D3332463178F6
:10407400785F48414C5F4472697665722F5372636E
:104084002F73746D3332663178785F68616C5F6367
:104094006F727465782E6300447269766572732F4B
:1040A40053544D3332463178785F48414C5F447203
:1040B400697665722F5372632F73746D3332663170
:1040C40078785F68616C5F646D612E630000000046
:1040D400447269766572732F53544D333246317886
:1040E400785F48414C5F4472697665722F537263FE
:1040F4002F73746D3332663178785F68616C5F69F1
:104104007764672E63000000447269766572732FCA
:1041140053544D3332463178785F48414C5F447292
:10412400697665722F5372632F73746D33326631FF
:1041340078785F68616C5F6932632E630000000009
:10414400447269766572732F6D6964646C654C6141
:10415400796572732F4932432F5372632F4D575F22
:104164004932432E63000000340000207000002018
:10417400447269766572732F6D6964646C654C6111
:10418400796572732F554152542F5372632F4D57D3
:104194005F55534152542E6300000000F800002084
:1041A4003801002078010020447269766572732F0B
:1041B4006D6964646C654C61796572732F4750490D
:1041C4004F2F5372632F4D575F4750494F2E630053
:1041D40000080140000C014000100140001401409F
:1041E400252D31307320252D336420252D3873007F
:1041F400243000001B5B313B33336D1B5B34306D6B
:1042040000000000E2869120200000001B5B303B90
:1042140033396D1B5B34396D00000000E286932056
:1042240020000000E286922020000000E286902018
:1042340020000000E296A120200000005820200069
:10424400E2978B2020000000E296B32020000000BB
:104254004C312020000000004C32202000000000DF
:1042640052312020000000005232202000000000C3
:10427400282533642C253364292C282533642C25E4
:104284003364290A000000005B25785D6475747945
:10429400206F76657220666C6F772825642900008C
:1042A400657272004D442825303278293A5B00004B
:1042B4004672000046770000427700004272000018
:1042C4005D2C5B2534645D0A0000000044445F7388
:1042D400656E64324D4400007472616E73206661D1
:1042E400696C6420617420282578292073697A65B3
:1042F4002025642C646174615B305D3D256400009D
:1043040044445F49324353656E6400006F736343F2
:104314006F6E6669674661696C640000636C6F6305
:104324006B436F6E6669674661696C6400000000E8
:1043340048414C5F52434345785F506572697068E9
:10434400434C4B436F6E6669670000007761697484
:1043540020666F7220524320636F6E6E65637469CA
:104364006F6E2E2E2E000000524320696E69746910
:10437400616C697A65206661696C64210A000000D9
:10438400524320636F6E6E65637465642073756356
:10439400657373004957444720696E697469616C99
:1043A400697A65004957444720696E697469616C8C
:1043B400697A65206661696C6564210A0000000001
:1043C400696E697469616C697A65204661696C64B7
:1043D40025640000493243436F6E6E656374696FF0
:1043E4006E54657374204661696C64256400000032
:1043F400737461727421210A000000001B5B324A4D
:104404001B5B313B31480000242564004465766918
:10441400636520447269766572205461736B7320FE
:104424004661696C64256400524320646973636F58
:104434006E6E65637465642100000000726320651C
:10444400727200006D61696E0000000053595F696B
:104454006E69740053595F636C6F636B496E697462
:104464000000000048414C5F554152545F5278436C
:0C447400706C7443616C6C6261636B00DF
:0444800075010008BA
:044484004D010008DE
:1044880000A24A0410000000000011000000000013
:1044980004020020E0010020280200204C02002035
:1044A8007002002094020020B8020020DC020020E4
:1044B8000003002000540040A08601000000000016
:1044C80000000000004000000000000000000000A4
:1044D80000000000000000000000000000000000D4
:1044E80000000000000000000000000000000000C4
:1044F80000580040A08601000000000000000000F5
:104508000040000000000000000000000000000063
:104518000000000000000000000000000000000093
:10452800000000000000000000000000002C014016
:104538000000000000000000000000000000000073
:104548000000000000000000000000000000000063
:104558000000000000000000000000000000000053
:1045680000000000000000000030004000000000D3
:10457800FF0F0000000000000038014000C20100E9
:104588000000000000000000000000000C00000017
:104598000000000000000000000000000000000013
:1045A8000000000000000000000000000000000003
:1045B80000000000000000000044004000C20100AC
:1045C8000000000000000000000000000C000000D7
:1045D80000000000000000000000000000000000D3
:1045E80000000000000000000000000000000000C3
:1045F8000000000000000000004800408025000086
:104608000000000000000000000000000C00000096
:104618000000000000000000000000000000000092
:104628000000000000000000000000000000000082
:104638000000000000000000010000000900000068
:04464800010000006D
:0400000508003E7140
:00000001FF
